:020000040800F2
:10000000009000202DA200087DA200087DA200081B
:1000100000000000000000000000000000000000E0
:100020000000000000000000000000007DA20008A9
:1000300000000000000000007DA20008E724000886
:100040007DA20008000000007DA200087DA200083B
:100050007DA2000835260008492600085D26000814
:10006000000000007DA200087DA200087DA200081B
:100070007DA200080179000819790008000000003D
:100080003179000849790008617900087979000818
:1000900091790008A9790008C1790008E1180008E1
:1000A000F91800087DA200087DA20008C9320008E6
:0800B000E1320008FD320008F6
:1000B8000023C25C0133002AFBD1581E70470000A0
:1000C80003B47146490840004900095E49008E445E
:1000D80003BC7047002243088B4274D303098B4248
:1000E8005FD3030A8B4244D3030B8B4228D3030C00
:1000F8008B420DD3FF22090212BA030C8B4202D3A2
:100108001212090265D0030B8B4219D300E0090AC9
:10011800C30B8B4201D3CB03C01A5241830B8B42D2
:1001280001D38B03C01A5241430B8B4201D34B03BB
:10013800C01A5241030B8B4201D30B03C01A524120
:10014800C30A8B4201D3CB02C01A5241830A8B42A5
:1001580001D38B02C01A5241430A8B4201D34B028E
:10016800C01A5241030A8B4201D30B02C01A5241F2
:10017800CDD2C3098B4201D3CB01C01A52418309A6
:100188008B4201D38B01C01A524143098B4201D3E0
:100198004B01C01A524103098B4201D30B01C01A0B
:1001A8005241C3088B4201D3CB00C01A5241830885
:1001B8008B4201D38B00C01A524143088B4201D3B2
:1001C8004B00C01A5241411A00D201465241104612
:1001D8007047FFE701B5002000F0F0F802BDC04607
:1001E8000029F7D076E7704703460B437FD40022F7
:1001F80043088B4274D303098B425FD3030A8B42B3
:1002080044D3030B8B4228D3030C8B420DD3FF221C
:10021800090212BA030C8B4202D31212090265D0EA
:10022800030B8B4219D300E0090AC30B8B4201D39D
:10023800CB03C01A5241830B8B4201D38B03C01AE4
:100248005241430B8B4201D34B03C01A5241030B5B
:100258008B4201D30B03C01A5241C30A8B4201D30C
:10026800CB02C01A5241830A8B4201D38B02C01AB7
:100278005241430A8B4201D34B02C01A5241030A2E
:100288008B4201D30B02C01A5241CDD2C3098B4213
:1002980001D3CB01C01A524183098B4201D38B0190
:1002A800C01A524143098B4201D34B01C01A524133
:1002B80003098B4201D30B01C01A5241C3088B4278
:1002C80001D3CB00C01A524183088B4201D38B0063
:1002D800C01A524143088B4201D34B00C01A524105
:1002E800411A00D201465241104670475DE0CA0FDC
:1002F80000D04942031000D34042534000229C469C
:1003080003098B422DD3030A8B4212D3FC228901A5
:1003180012BA030A8B420CD3890192118B4208D37B
:10032800890192118B4204D389013AD0921100E0DD
:100338008909C3098B4201D3CB01C01A52418309F1
:100348008B4201D38B01C01A524143098B4201D31E
:100358004B01C01A524103098B4201D30B01C01A49
:100368005241C3088B4201D3CB00C01A52418308C3
:100378008B4201D38B00C01A5241D9D243088B4219
:1003880001D34B00C01A5241411A00D201466346BC
:1003980052415B10104601D34042002B00D5494220
:1003A800704763465B1000D3404201B5002000F05F
:1003B80005F802BD0029F8D016E770477047C04617
:1003C800844608006146FFE71FB50CF0EFFA0028E5
:1003D80001D40021C8421FBD10B50CF07BFA404281
:1003E800013010BD10B50CF0E1FA002801DB002047
:1003F80010BD012010BDC04610B50CF0D7FA00287A
:1004080001DD002010BD012010BDC04610B50CF064
:1004180087FA002801DC002010BD012010BDC0466D
:1004280010B50CF07DFA002801DA002010BD01207B
:1004380010BDC046002B15D1002A13D1002906DBB8
:1004480001DC002806D00020C043410802E08021DA
:100458000906002007B4024801A14018029003BD14
:100468005DFFFFFF03B4684601B502980CF0FCF885
:10047800019B9E4602B00CBC7047C046002B11D1B0
:10048800002A0FD1002900D1002802D00021C94339
:10049800080007B4024802A14018029003BDC046F4
:1004A8001DFFFFFF03B4684601B502980CF010F871
:1004B800019B9E4602B00CBC7047C0460100343117
:1004C80038C9043B9C461D60A646010020313CC942
:1004D80090469946A246AB4601000831FCC94168DE
:1004E8000068E54600BDC0467047C0467047C04634
:1004F8007047C0467047C0467047C0467047C04600
:100508007047C0467047C0467047C0467047C046EF
:1005180001B401A801B585B0FFB408A841464A4610
:1005280053465C4665463EC001A83EC80F980090F9
:1005380000230CB401A90DF0EBFD109B12B0184775
:1005480001B401A801B585B0FFB408A841464A46E0
:1005580053465C4665463EC001A83EC80F980090C9
:1005680000230CB401A90DF007FE109B12B0184728
:1005780001B401A801B585B0FFB408A841464A46B0
:1005880053465C4665463EC001A83EC80F98009099
:1005980000230CB401A90DF013FE109B12B01847EC
:1005A80001B401A801B585B0FFB408A841464A4680
:1005B80053465C4665463EC001A83EC80F98009069
:1005C80000230CB401AB0DF0CDFD109B12B0184701
:1005D80001B401A801B585B0FFB408A841464A4650
:1005E80053465C4665463EC001A83EC80F98009039
:1005F80000230CB401AA0DF03DFE109B12B0184761
:100608001C2101231B04984201D3000C10391B0A3A
:10061800984201D3000A08391B09984201D30009FE
:10062800043902A2105C40187047C0460403020255
:1006380001010101000000000000000010B50029C0
:1006480003D1FFF7DDFF203002E00800FFF7D8FFF5
:1006580010BDC04610B5064C2378002B07D1054BBA
:10066800002B02D0044800E000BF0123237010BD16
:10067800D8010020000000005CED0008044B10B514
:10068800002B03D00349044800E000BF10BDC0465A
:1006980000000000DC0100205CED000810B586B009
:1006A800040003F03FFD1022002102A80AF072FDA9
:1006B800022302933D3304933E3B059300230193A9
:1006C80001A902A803F0D6FDE3172200044901207E
:1006D80003F084FD03F03EFD002006B010BDC046C7
:1006E80000F8010800B593B03422002105A80AF0EB
:1006F80051FD1022002101A80AF04CFD8020800045
:1007080004F080FF02230593FE33089380235B01E6
:10071800099340230A9300230C9305A804F09CFF37
:10072800002800D0FEE707230193002302930393D8
:100738000493002101A805F03DFA002800D0FEE747
:1007480013B000BD10B582B09624A4010622210082
:100758002E480AF099F8062221002D480AF094F84C
:1007680096212C4C0622C90120000AF08DF801219F
:10077800C4200AF0E3FB0121C4200AF04DFC2368E1
:100788001B682021200098470021234801F0EAFB3C
:10079800224800F0D3FA224800F0D0FA214800F0AD
:1007A800D7FB214B1B68214A1360013BFD2B02D963
:1007B800130001221A6096231C4A12680621009130
:1007C8009B011B491B4809F09BFB002800D1FEE751
:1007D800184C28220021200009F021FC01220021C8
:1007E800200009F0FAFB01220021200009F0D4FBC7
:1007F8000121C6200AF0A2FB0021C6200AF00CFC49
:100808000D4903480AF010F902B010BD9C070020FA
:10081800B805002040030020D40400201809002057
:100828002C070020FC01002000F801082407002004
:1008380068070020EC0C0020B8ED0008F0B5C646AB
:1008480000B586B0B44C200009F008FB0021200058
:1008580009F008FC0100C6200AF0DEFBAF4800F0F2
:10086800B3FBAF4809F007FD04281EDCAD4B1B683D
:10087800002B2CD001F02EFE0400AB4B1B68FA2293
:10088800920094466344834232D2A64B1B68002BE5
:1008980002DD013BA34A1360A14809F0ECFC0028E3
:1008A8001AD09F480AF03EF8F6E7052201A99C48AD
:1008B8000AF057F96B46D97909021B7AC91809B2A7
:1008C8009A4800F097FA974B02221A60D2E79849A3
:1008D800964800F08FFACDE701A9964B1A68019265
:1008E8001B790B7105228E4809F024FF8E4B1C6082
:1008F8000021894809F0CCFB041E79D08E4B1B6877
:10090800834275D000220021834809F0D7FB642078
:100918000AF0C8FB2000FFF7C1FE64200AF0C2FB02
:1009280003F0BEFA64E0854809F0A5FC00285FD012
:10093800824809F0F7FFF6E7072B39DC03AB1B7A8F
:100948000A2B03D103AB5B7A0D2B06D07C4B00221C
:100958001A6014200AF0A6FB24E003AC102201A9B7
:1009680020000AF04BFF019B1C1B082C08D174497E
:100978000B685A1E9200734C105101330B6037E01C
:100988006F4B00221A6014200AF08CFB6B4809F0A8
:1009980072FC00282CD0694809F0C4FFF6E76748C4
:1009A80009F0C0FF654809F066FC0028F7D11FE090
:1009B8000A22654903A80AF061FE002832D1614D78
:1009C8002A88554C0721200009F0AAFB2A8908210A
:1009D800200009F0A5FBAA890921200009F0A0FB45
:1009E8002A8A0A21200009F09BFB554B00221A6035
:1009F800524809F040FC092819DD0A2203A94F488A
:100A08000AF0AFF800904E4B1B68002B94D10A22D5
:100A18004E4903A80AF032FE002884D1484B01222F
:100A28001A60E5E74A49454809F0FEFFDDE7494B0A
:100A38009846180000F089F90200374C0021200080
:100A480009F06EFB444E300000F07FF902000121EE
:100A5800200009F065FB314D0423E95E3F4800F0B2
:100A6800C9F982B20221200009F05AFB68690CF02A
:100A7800B5FA01003A4F380000F008FA380000F0E3
:100A880001FA02000321200009F04AFB380000F0B7
:100A9800FBF902000421200009F042FB0A23E95E69
:100AA800304800F0A7F982B20521200009F038FB90
:100AB8001E4FBA880621200009F032FB404600F09C
:100AC80042F902001421200009F02AFB300000F04E
:100AD8003AF902001521200009F022FBAA88162104
:100AE800200009F01DFBEA881721200009F018FBF7
:100AF8002A891821200009F013FB6A89192120008E
:100B080009F00EFBFA881A21200009F009FB06B04B
:100B180080BCB846F0BDC046EC0C0020FC010020AB
:100B2800400300202807002020070020A4040020FC
:100B3800FF7F0000D8ED000824070020B80500203A
:100B48001C07002000000020CCED0008C0ED0008C4
:100B5800B8ED0008180900202C0700200009002023
:100B680048070020BC040020F0B5C64600B582B096
:100B780004000D00012808D0002C02D1454B9D42ED
:100B88005DD002B080BCB846F0BD424B9942F3D16B
:100B9800002100910B000A003F4809F001FF1F26C1
:100BA80000963300CA2219213C4809F023FC3C4F27
:100BB80000963300C222C321380009F01BFC012330
:100BC8005B420093C533C2223900364808F0E2F888
:100BD8000096330009220A21334809F00BFC334BF5
:100BE800984616221721180000F094FFD636FF36D3
:100BF80033002F4AC9212F4800F092F833002E4ABB
:100C0800C5212E4800F08CF8FE27BF053200391C9C
:100C18002B4800F0E3F83200391C2A4800F0DEF8CF
:100C28003200391C284800F019F92022391C2748BD
:100C380000F0D4F84146264800F06EF99CE72448B5
:100C480000F008FA214800F0A9F81F4800F0ACF8B5
:100C58001C4800F0A3F81A4800F0A0F8174800F064
:100C68004FF8144800F04CF8104B1A4A1A60DC226E
:100C78009B58002B03D01848D93A010098470B4AD3
:100C8800CC23D358002B00D17BE714480322010062
:100C9800984776E7FFFF0000F4010020B805002020
:100CA8009C0700206807002040030020D40400208F
:100CB80047310E41180900200DE0ED402C070020B7
:100CC80000090020BC04002048070020A4040020DC
:100CD800FC010020BCEE0008A805002098050020B3
:100CE80010B502490120FFF73FFF10BDFFFF0000CC
:100CF80010B502490020FFF737FF10BDFFFF0000C5
:100D0800014B083303607047E0ED000810B504009C
:100D1800FFF7F6FF1821200006F09AFE200010BD0C
:100D280010B5054C083404604160C260012252428B
:100D38000261436110BDC046E0ED000810B50C200B
:100D48000AF0ACF810BD0089704770B5040040681F
:100D58000AF0CCF885B225812069431C1AD0636952
:100D6800013B58436169FFF7B5F945192561E56805
:100D780020690CF0A1F9291C0BF05CFE051C6069C8
:100D88000CF04CF9011C281C0BF08CFC0BF054FBEC
:100D980080B270BD63695D432561E8E7014B0833A4
:100DA80003607047F0ED0008014B0833036070479B
:100DB80000EE000810B50400FFF7F0FF182120002E
:100DC80006F046FE200010BD10B50400FFF7ECFF4A
:100DD8002021200006F03CFE200010BD044B083303
:100DE8000360816000230373036142617047C0465A
:100DF800F0ED000870B504000D00C180164B994253
:100E08001CD0037B002B1DD10133037343695D4361
:100E18000561A56820690CF001F9291C0BF00AFE90
:100E2800051C60690CF0FAF8011C281C0BF03AFC50
:100E38000CF0D4F8030000B2A38070BD0023037344
:100E48000800FAE74369581E236958436169FFF7A8
:100E5800CBF945192561DCE7FF7F000030B5074B6A
:100E680008330360416000230372002400250461F5
:100E78004561034B8361C26130BDC04600EE000886
:100E8800FFFFFF7F408B7047008B704770B582B0C3
:100E980005000C001E4B994201DD002301931D4BF8
:100EA8009C421ED02B7A002B1FD101332B72EB6989
:100EB8005C43E3172C616B616C68286969690BF006
:100EC800D3FA211C0BF0B6FD041CE8690CF0A6F857
:100ED800011C201C0BF0E6FB0CF080F8A86102B0A6
:100EE80070BD00232B722000F9E7EE69721ED3173C
:100EF800286969690BF072FAF3173200FFF79AFA5A
:100F08002200E3178018594128616961D4E7C04677
:100F1800A8610000FFFFFF7F30B583B004000D001B
:100F28000A4B08330360203000F0A0FD601DFF303D
:100F38007622290007F08AFEA0235B000022E250F7
:100F48001D3BFF3B0193200003B030BD50EE00086D
:100F580070B50400451DFF35280007F0CBFD0028BB
:100F680018D0280007F06DFC0521280007F070FC58
:100F78000521280007F078FC0021280007F0E0FB95
:100F8800002815D1280007F07BFCA0235B00012274
:100F9800E25070BD09490A4809F066FD002304E0E3
:100FA8005A00A218074991800133032BF8DDF0E7B6
:100FB8000521280007F075FCE4E7C04610EE00089C
:100FC800380D0020FF7F000070B50400A0235B00EF
:100FD800C358002B07D11D4B8380C3800122524286
:100FE8000281438170BD451DFF35280007F082FC52
:100FF800002803D1280007F043FCF3E7280007F096
:1010080051FBA06112490BF015FD0BF015FAA080F9
:10101800280007F0E1FA60610BF0E0FF0314E380B9
:1010280020810021280007F08BFB002802D1074B04
:101038006381DFE7280007F091FBE06104490BF0CA
:10104800F9FC0BF0F9F96081D4E7C046FF7F000096
:101058000000C84270B504000E4B08330360053029
:10106800FF3007F075FD250020350B4B236220006B
:10107800F4308368002B02D003220100984728002F
:10108800C4308368002B02D0032201009847200057
:1010980070BDC04650EE0008BCEE000810B5040054
:1010A800FFF7D8FFA2214900200006F0D1FC20005C
:1010B80010BD0000F0B5DE4657464E464546E0B541
:1010C80097B003008946022900D93EE1CA00A44925
:1010D8005258824258D04A46D400A14AA3505808D0
:1010E800A04A944660441900FEF7F4FF06000590F4
:1010F8009D4D4B46E31A9B0059594808994B9C460D
:101108006044FEF7E7FF08904B46E31A9B00EB1894
:101118001A8B90469A894244323A997EC81C704389
:10112800151A1095DA89D88A8346121A053AFF3AB1
:10113800081D7043121A12921B8A5B441593002DE6
:101148002CDD129B002B2CDD059B4B4307934B4654
:10115800DC00E41AA300844CE41861688148FEF7B7
:10116800B9FF0390A1687F48FEF7B4FF089B069378
:1011780000230A9310330C9300231493013B0B9321
:1011880084464446D846D6E04A46D100744A5218A6
:1011980052680B92002A00D0DAE09CE700231093F3
:1011A800CFE700231293CFE75B1A9A462AE0013271
:1011B80092B2FF2A4DD80092531C61464B430299C4
:1011C8008A46534401998A4653444146C918091826
:1011D80089198D42EBD8039C8C42E8D34C46E40035
:1011E8004F46E41BA400A2465F4CA346DA4454468B
:1011F800A48A9C42DBD8059C9C42D8D2089BCC1A76
:10120800A246D1D4069B9A45D1D20E9B1B070D99B5
:1012180009058B46F02109045C4621400B430999D6
:101228000904F024240321401943009B1B061B0CCE
:101238001943FF23049C234019430C000B914B4690
:10124800DB004749CB185C600A9B0C935346069316
:10125800ADE7A84665468446049B01339BB20493D8
:10126800049BFF2B22D807990F003237049B581C88
:101278006843059B5C00001938184A46D3009B1A3E
:101288009B00394AD3185B8A8342E5D20300323B7C
:101298005B1A9B08059A9342DED9002201970294B3
:1012A80003006046AC464546984682E734000F9BEB
:1012B8000133DBB20F930F9B0F2B1BD80F990991AA
:1012C800119A13004B4305994B4310989842EED856
:1012D80012989842EBD30C9B0A988342E7D0149B50
:1012E80001331493072B33D851430D000023049383
:1012F8002600B5E72500139B0133DBB21393139B3C
:101308000F2B10D8139B0D9301330A9A0E920132BA
:1013180011925343059A5343159A9A42EBD80023E6
:101328000F932C00C7E72C004346E0469C460A9BD7
:101338000133DBB20A930A9B0F2B09D800231393BE
:1013480025006346C4469846D9E701235B420B93C0
:101358000B9817B0F0BCBB46B246A946A046F0BDF4
:101368003009002000CA9A3B60EE000810B504005E
:10137800134B984204D00020124B9C421DD010BD44
:10138800202004F0F7FC0028F6D10F4B5B6DC0223B
:101398009201134080225201934206D0802292018A
:1013A800934208D0002B03D0FEE7084B1868E3E708
:1013B80004F0CCFCE0E70648DEE704F0C7FCDEE713
:1013C8000054004000580040001002405C0000201B
:1013D8000024F40010B5144B994207D9134B9942D5
:1013E80012D9134B994202D900200CE00E4B0F4A38
:1013F80093420BD00E4A93420FD00068FFF7B6FF16
:101408000021FFF757FE10BD084BF0E70068FFF713
:10141800ADFF0121FFF74EFEF5E70068FFF7A6FFD5
:101428000221FFF747FEEEE7A0860100801A0600BA
:1014380040420F00F0B585B00400009101921E00F3
:10144800002800D182E0071D4149C06D01F024FA4F
:1014580005004049206E01F01FFA0100002D75D0EB
:10146800002873D0280001F044FA206000286DD0CD
:10147800394B984237D0394B22689A424AD035497D
:10148800206E01F0EFF93249E06D01F0EBF92368C5
:10149800636000992000FFF79DFFA060E6600023CD
:1014A800A361019A226163619733E35C002B01D049
:1014B80080231B0323629823E35C002B01D0802345
:1014C8009B02636245230022E2546425605702218F
:1014D80002F09AFC605702F0C7FC380003F000F8ED
:1014E80000282ED0FEE71E4BD96B802292031143B1
:1014F800D963D96B114002910299D96A0A43DA6219
:10150800DA6A18490A40DA6264231722E254164B51
:101518001F60B0E7124BD96B8022D2031143D96305
:10152800D96B114003910399D96A0A43DA62DA6ADE
:101538000E490A40DA6264231822E2540A4B5F60BB
:101548009DE70023A36695330222E25405B0F0BD5F
:1015580040F70008F8F60008005400400058004022
:1015680000100240FFFFDFFF48090020FFFFBFFF18
:1015780030B5202A14D8002408E09423C35C1B1932
:101588000D5DC31874331D700134E4B2A3B29342E5
:10159800F3D39421435C9A18D2B24254002030BD50
:1015A8000120FCE7F0B5DE4657464E464546E0B515
:1015B80085B0804602919246994601F007FF83461E
:1015C80043461F6B0026002303934346B0461E0084
:1015D8000EE001F0FBFE5B46C31A9846642B05D962
:1015E8001E000623039314E004230393022C0FD157
:1015F800351D6B46198900974B465246280003F063
:10160800F7F804000228E4D00028EDD10390EDE7B4
:101618004646039B002B07D0039805B0F0BCBB4699
:10162800B246A946A046F0BD01F0D0FE040028004D
:1016380003F0E2FF202809D0632E07D801F0C6FE88
:10164800061B280003F0DCFF0028F0D0280003F078
:10165800D7FF632E08D8830609D443070AD4002885
:10166800DAD004230393D7E705230393D4E70523AC
:101678000393D1E703230393CEE710B504000430A6
:10168800642302F093FF02280FD0032807D0002814
:101698000AD04523E35C202B0FD0042004E0452327
:1016A800E35C202B07D0052010BD4523E35C202BED
:1016B800FAD00620F8E70220F6E70220F4E7F0B5B2
:1016C800DE4657464E464546E0B585B0804602910F
:1016D8009246994601F07AFE83464B46002B08D085
:1016E80043461F6B0026002303934346B0461E0063
:1016F80015E0012202994046FFF7BFFF039022E060
:1017080001F064FE5B46C31A9846642B05D91E0097
:101718000623039314E004230393022C0FD1351DF1
:101728006B46198900974B465246280003F004F887
:1017380004000228E4D00028EDD10390EDE74646E6
:10174800039B002B07D0039805B0F0BCBB46B246FC
:10175800A946A046F0BD01F039FE0400280003F0B8
:101768004BFF202809D0632E07D801F02FFE061B57
:10177800280003F045FF0028F0D0280003F040FFC0
:10178800632E08D8830609D443070AD40028DAD080
:1017980004230393D7E705230393D4E7052303938F
:1017A800D1E703230393CEE70438704710B5002828
:1017B80005D0002903D0C166043003F057F910BDE5
:1017C80010B5002805D0002903D00167043003F0C4
:1017D8004DF910BD70B505000E00FFF7E5FF0400D8
:1017E8009523C35C012B16D0012E1FD1952300220F
:1017F800E254236F002B04D094320021A15420001E
:101808009847210074319423E25C143B9B04280020
:1018180003F04AF870BD836E002BE5D0C36E98477D
:1018280095230222E2540023A366DDE70023A36682
:1018380095330122E254A16E703161180431153BD1
:101848005B04280003F0A0F8E4E770B50500FFF793
:10185800ABFF04009523C35C012B08D0952302221B
:10186800E2540023A366280003F000F970BD836EDC
:10187800002BF3D0C36E9847F0E710B50400FFF7CC
:1018880093FF836E1F2B02DC836E013383669523DF
:10189800C35C012B00D010BD816E7031411804313A
:1018A8007F335B040122200003F06EF8F3E710B5E4
:1018B800FFF77AFF94230022C25410BD10B504002C
:1018C800FFF772FF9623C35C002B00D010BD2000E9
:1018D80003F0CCF8FAE7000010B5044B1C682000B0
:1018E80003F0D8F8200003F049FE10BD4809002095
:1018F80010B5044B5C68200003F0CCF8200003F01E
:101908003DFE10BD4809002000207047038BC08AA7
:10191800181A70470300C28A018B8A4204D20169EF
:10192800885C0132DA82704701204042FBE7C38AB3
:10193800028B934202D20269D05C70470120404278
:10194800FBE7F0B5C64600B504000E0015002423D9
:10195800C35C002B2DD0478CBF188023DB009F422F
:1019680013D8038C9F4211D91F2F0AD9B846414674
:10197800E06909F067FE002806D0E0614346238449
:1019880004E020239846F2E7FEE70027002F03D162
:10199800380080BCB846F0BD608CE3699C46604462
:1019A8002A00310009F0EDFB638C5B1963842F007A
:1019B800EEE792B22830FFF7DBFD002801D12F00B7
:1019C800E6E70027E4E710B504000023C382038399
:1019D8000069002803D0A28A002109F0DBFB00235C
:1019E8006384E069002803D0228C002109F0D2FB2F
:1019F80010BD70B582B004006B46D9712423C35C56
:101A0800002B25D0458C01358023DB009D4211D861
:101A1800038C9D420FD91F2D09D92E003100E06992
:101A280009F010FE002804D0E061268403E0202697
:101A3800F4E7FEE70025002D13D0638C6A460732D1
:101A48001278E169CA54638C01336384012508E084
:101A5800283001226B46D91DFFF78AFD002803D1E3
:101A68000125280002B070BD0025FAE70C4B036081
:101A7800002343600B4A0260FA22920082600A4AFD
:101A8800083202600200C432936010329360074B40
:101A98008422996A81505A6A8823C2507047C04686
:101AA800D0FC0008E8FC0008B4EE000810FC0008B0
:101AB80070B504000D00012805D0002C02D1104B90
:101AC8009D4207D070BD0E4B9942F6D10D48FFF7E5
:101AD800CDFFF2E70B4A0C4B08331360DC23D358D5
:101AE800002B03D00948032201009847054ACC235C
:101AF800D358002BE6D00648032201009847E1E7B7
:101B0800FFFF000050090020B4EE0008240A00205E
:101B1800140A002010B52F4B0360002343602E4C9D
:101B28000460FA24A40084602C4C08340460040087
:101B3800C434A3601034A360FF330B401E2B16D8A7
:101B48009B00274C1B59E024E400214019438423BF
:101B5800C1507B3313401E2B22D89B0020495B5871
:101B6800E021C9000A401A438823C25010BDC0248E
:101B78000C40C02C02D001214942E8E7CA2B0CD8FE
:101B88003F230B409B00174C1B599B00144C1B59BF
:101B9800E024E40021401943D9E701214942D6E76E
:101BA800C0211140C02902D001225242DCE7CA2BD1
:101BB8000CD83F2313409B000A495B589B000849F7
:101BC8005B58E021C9000A401A43CDE7012252427E
:101BD800CAE7C046D0FC0008E8FC0008B4EE0008DC
:101BE80010FC0008E4FB000824230122C254490029
:101BF800817600234384704770B50400002908D11A
:101C0800AA238365BE23E35C012B06D00425E8B232
:101C180070BDAA231B028365F4E7638CA17E2000B4
:101C28002830E269FFF74BFD022816D011D80028AA
:101C380015D0012815D10125E069002803D0228C90
:101C4800002109F0A7FA0023638400222433E25418
:101C5800DDE7032807D10325EEE70225ECE7002599
:101C6800EAE70425E8E70425E6E710B50121FFF7D0
:101C7800C3FF10BD70B505000C00838A8B420AD2E1
:101C88001F2900D820242100286909F0DBFC00283E
:101C980002D02861AC8270BDFEE7F0B585B00400C3
:101CA8000391019202930AAB1D780BAB1E78BE23F9
:101CB800C35C012B02D0002005B0F0BD1100FFF776
:101CC800D9FF002D17D1002E2FD1AA23A3656B466B
:101CD8009B88039A5100C9B2200028302269FFF777
:101CE80061FC002801D0002301930023E382019BBB
:101CF80023831800E0E703992000FFF775FF032D01
:101D080000D903256F1EFFB2002D09D023681B6878
:101D1800FA000299D140C9B2200098473D00F1E786
:101D280000212000FFF768FFCDE7AA231B02A36567
:101D3800CDE700B583B0019300230093FFF7ADFF13
:101D480003B000BD10B50123FFF7F3FF10BD00007D
:101D580070B584B005008424005908F041FF0021C3
:101D680009F0ECF829590B090F221A40042A03D864
:101D780092004B4BD05800E000200F230B409B00F3
:101D8800484A9A58036913409A4207D00023002B07
:101D980006D00124002C05D004B070BD0123F6E75D
:101DA8000024F7E78823E85808F01AFF012109F012
:101DB800C5F84BE0002255E0039BF31802995B1A23
:101DC800D218029B039390420AD9374B9B6802931F
:101DD8000399029B9942EFD3039B02995B1AEFE7A1
:101DE8008823E9580B090F221A40042A17D89200B1
:101DF8002B4BD2580F230B409B002A495B58936109
:101E0800294B9A6800925E680136F0008019FA2121
:101E18008900FEF75FF9009B019300220AE0002287
:101E2800E8E7019BF31800995B1AD218009B01930D
:101E380090420AD91C4B9B6800930199009B9942D8
:101E4800EFD3019B00995B1AEFE70134132C1EDCDA
:101E58008823E9580B090F221A40042AAAD89200AD
:101E68000F4BD2580F230B409B000E495B589362CF
:101E78000D4B9A6802925E680136F0008019FA21CB
:101E88008900FEF727F9029B039300229DE7882328
:101E9800E85808F0A5FE002109F050F87CE7C04694
:101EA8002000002040EF000810E000E0F0B5C64632
:101EB80000B504000D0090461F000021C182018377
:101EC800016181820023438400228276C3610384F6
:101ED8008033C0500600D436B368002B06D00322E6
:101EE8003100300098470023B360F36024230022B8
:101EF800E2546B002532A354012D00D00025BE23E7
:101F0800E5544346002B1AD00122BF23E254002F88
:101F180017D00122C023E2542000FFF719FF250043
:101F280028352523E35C01220B492800FFF782FAB4
:101F3800BE23E35C002B06D080BCB846F0BD00226F
:101F4800E3E70022E6E705492800FFF739FC0449E2
:101F58002800FFF72BFCEFE7A0860100E91F000827
:101F6800951F000810B50A0000230121FFF79EFF06
:101F780010BD00B583B001918368002B04D0C368FD
:101F880001A9984703B000BD0CF0E0FE70B506004B
:101F98007436856E846D2300C4339B68002B03D090
:101FA800E28A238B9A4200D270BD29002000FFF7F5
:101FB80061FE2A003100206909F0E3F80023E3827A
:101FC80025832000C4302900FFF7D3FFECE710B5C4
:101FD8008368002B02D0C368984710BD0CF0B6FE8A
:101FE80010B5806D0300D4339B68002B04D0002308
:101FF8004384D430FFF7EBFF10BD000010B5024951
:102008000120FFF755FD10BDFFFF000010B5024984
:102018000020FFF74DFD10BDFFFF000086B004282B
:102028003CD880001E4B1B589F461E4A516B01230B
:1020380019435163526B13400193019BA020C005C3
:1020480006B07047174A516B022319435163526B0C
:1020580013400293029B1448F2E7124A516B04237F
:1020680019435163526B13400393039B0F48E7E7EF
:102078000C4A516B082319435163526B1340049364
:10208800049B0B48DCE7074A516B20231943516333
:10209800526B13400593059B0648D1E70020CFE714
:1020A800E0EE000800100240000400500008005054
:1020B800000C00500014005010B5194900F013FC32
:1020C800C30B1F201840122825D88000154B1B5819
:1020D8009F46154821E015481FE015481DE01548A2
:1020E8001BE0154819E0154817E0154815E0154894
:1020F80013E0154811E015480FE015480DE01548A4
:102108000BE0154809E0154807E0154805E01548B3
:1021180003E0154801E0FEE7012010BD1348FCE785
:1021280068F60008F4EE0008040000080800000C37
:102138001000001020000014400000188000001C4F
:102148000001002000020024000400280008002CE0
:102158000010003000200034004000380080003CAF
:10216800000001400000024400000448020000048E
:10217800074B984206D0074B984205D0064B984229
:1021880004D0FEE7054800E0054870470548FCE72D
:10219800021000000310000001100000002000B42D
:1021A800004000B8001000B000B583B00B4B196CAC
:1021B80080204003014319641A6C02400192019A7D
:1021C8005A6D920092085A65054B1868C30401D5E8
:1021D80003B000BD034900F045FBF9E700100240D9
:1021E8003400002068F60008094B196B802252035E
:1021F80011431963186B074908401863186B0243A9
:102208001A631A6B0A401A631A6C0A401A647047F8
:1022180000100240FFFFEFFF70B59EB004000D00F4
:102228006422002105A808F0B5FF0C22002102A8AD
:1022380008F0B0FF00236A46D3800093E30402D578
:10224800714B9C421CD97149200000F025FB059078
:1022580069462000FFF730FF06000322059B002B8C
:1022680000D1C8E080231B060693082D00D185E025
:102278000A2D00D185E0062D0AD00023079309E036
:10228800634B05932000FFF773FF06000722E5E77D
:102298001823079305A80023C3608021090601615C
:1022A800042141610376437683760339C1611F3186
:1022B8004354436283620C314354802149010163D2
:1022C800426382633C228354C36483650365183286
:1022D8008354504B1C6001F08BF8002800D08CE030
:1022E8000296012E3ED04C4B9E423BD04B4B9E4219
:1022F80038D04B4B9E4235D04A4B9E4232D04A4B47
:102308009E422FD0494B9E422CD0494B9E4229D009
:10231800484B9E4226D0484B9E4223D0474B9E4274
:1023280020D0474B9E421DD0464B9E421AD0464B6A
:102338009E4217D0454B9E4214D0454B9E4211D029
:10234800444B9E420ED0444B9E420BD0434B9E4280
:1023580008D0434B9E4205D0424B9E4202D0424B8E
:102368009E424DD1012303930023049302A905A89B
:1023780001F0C4F9002807D000203FE0102307939C
:1023880088E70823079385E705A801F09FFC002844
:1023980001D0002032E005A801F098FB002801D008
:1023A80000202BE00A2105A801F044F9002801D0FB
:1023B800002023E005A801F0F1FA830506D405A85A
:1023C80001F062FC002808D0002017E005A801F001
:1023D80091F980B26B46D880F1E705A801F0F4FBCB
:1023E80000280FD1214A136821490B4013606B461E
:1023F800D88880B202E0002000E000201EB070BD46
:102408000020FBE70020F9E70310000068F6000849
:1024180000240140340000200200000404000008E9
:102428000800000C100000102000001440000018E4
:102438008000001C00010020000200240004002885
:102448000008002C00100030002000340040003844
:102458000080003C000001400000024400000448E5
:10246800001000B0002000B4004000B80827014068
:10247800FFFF3FFE70B50500144900F00DFA05F0A6
:1024880069F904008200124BD358002B0DD0A40028
:102498000F4BE3581C68002C06D0200005F098F973
:1024A800B421200005F0D4FA70BD0849280000F0D6
:1024B800F3F90600B42005F0C7FA0500310005F06D
:1024C80007FAA300024A9B581D60E0E7F0F80008ED
:1024D800A40B002010B500F079FF10BD704710B5AF
:1024E80000F068FF01F015FDFFF7F8FF10BD704719
:1024F80084B00E4BD96B802040050143D963DA6B59
:1025080002400192019A196C012211431964196C55
:102518000A400292029A9A6B802149010A439A63FF
:102528009B6B0B400393039B04B070470010024061
:1025380010B5FFF7DDFFC020C00000F04DFF00F030
:1025480025FFFFF7D4FFFEF7CDF8024801F0E6FCBF
:1025580010BDC046380000200300002002E05B08E0
:102568000130C0B2012BFAD17047000070B50128C4
:1025780005D0002802D12A4B994242D070BD284B81
:102588009942F6D1274B05241C700022DA601C758D
:102598001A62013428255C555A6314355C559A64CF
:1025A800013414355C55DA6514355C551A671435F1
:1025B8005C550C355A5108355C550C355A5108355F
:1025C8005C550C355A5108355C550C355A5108354F
:1025D8005C550C355A5108355C550C355A5108353F
:1025E8005C550C355A5108355C550C355A5108352F
:1025F8005C550C355A5108355C553234FF341A5144
:10260800B7E7094C02E0032201009847054B9C42BA
:10261800B4D0143C201D8368002BF4D1F6E7C046E3
:10262800FFFF0000340A0020740B002010B50124BD
:1026380003E0A0B201F064FE6400022CF9D910BDD9
:1026480010B5042403E0A0B201F05AFE6400082C7F
:10265800F9D910BD10B5102403E0A0B201F050FE66
:10266800640080231B029C42F7D910BD10B5FFF708
:1026780073FF03008000C0188000044BC0180430AA
:102688008368002B01D0FFF7A2FC10BD340A00209C
:1026980010B5FFF7EBFF10BD10B5FFF7E7FF10BD52
:1026A80010B502490120FFF761FF10BDFFFF0000D0
:1026B80010B502490020FFF759FF10BDFFFF0000C9
:1026C800431C06D00B685A1C05D0834205D00C3138
:1026D800F8E7002070470020FCE70120FAE7000037
:1026E800F8B5CE46474680B505000E0007240C40D5
:1026F8000B127F221A40904600090F2318402B40E6
:102708009B00564A9F586B1C14D0FF232B400B2B61
:1027180025D010D8092B16D00A2B25D1C0239B0110
:102728002A001A409A421FD14D4A136810210B43C0
:10273800136019E0FEE70C2B16D1494A13681021E3
:102748008B43136010E0C0239B012A001A409A4271
:102758000AD1434A136808210B43136004E0404A36
:10276800136808218B431360FFF758FC8368994668
:102778003A007A4353009B18D9438C4649469943FB
:102788000B438360022C22D01CD8002C47D0012C8C
:1027980017D12100036865462B404A431A4302605B
:1027A800013C012C3DD9311103260E40012E42D0A7
:1027B800022E4BD0C3687F437A00D719BB43C3604E
:1027C80040E003E0032C01D12100E3E7FEE74346A4
:1027D8007F2B01D12100DDE70F232B409B001F49F0
:1027E8005B5829070ED5456A1B0A190059435943F6
:1027F8004B431901C91A8D4341464B432B4343624E
:102808002100C7E7056A1900594359434B43190189
:10281800C91A8D4341464B432B430362F0E721001D
:10282800B8E7330703D543683B434360BBE74368D6
:10283800BB434360B7E7C3687F437A00D219934329
:102848001F43C760C0BCB946B046F8BDC3687F43E4
:102858007A00D719BB431343C360F3E740EF00087E
:102868000000014010B5431C09D00B685A1C07D062
:10287800834201D00C31F8E78968FFF731FF10BDBA
:10288800FEE700E00C310B685A1C03D08342F9D1F3
:10289800486800E00020704710B5431C02D0FFF7DD
:1028A800F0FF10BD0020FCE700E00C314B68002B66
:1028B80003D08342F9D1086801E001204042704703
:1028C80010B5002802D0FFF7EFFF10BD01204042ED
:1028D800FBE7030000E00C310868421C02D0984274
:1028E800F9D18868704710B5431C01D0FFF7F1FF94
:1028F80010BD884204D0002803D0002900D0002051
:1029080070470800FCE700000D4B1968A022D200B0
:102918000A431A60002199601A680A4802401A603E
:1029280080225201DA601A68074802401A609961E9
:10293800064A1A62064B802212059A607047C04602
:1029480000100240FFFFF6FEFFFFFBFF3B03000005
:1029580000ED00E00438704710B588B03B4B0268C2
:102968009A421DD03A4B02689A4224D0394B0268E9
:102978009A422AD0384B02689A4230D0374B0268C4
:102988009A4236D0364B02689A423DD0354B02689F
:102998009A4244D00268344B9A424BD008B010BDDA
:1029A800324A116C8024240121431164136C2340A2
:1029B8000093009BD6E72D4AD16B02231943D163BC
:1029C800D26B13400193019BD0E7284AD16B1023A7
:1029D8001943D163D26B13400293029BCAE7234A7F
:1029E800D16B20231943D163D26B13400393039B0C
:1029F800C4E71E4A116C8024240221431164136C1D
:102A080023400493049BBDE7184A116C8024640298
:102A180021431164136C23400593059BB6E7134AC1
:102A2800116C8024A40221431164136C2340069383
:102A3800069BAFE70D4A116C8020C0020143116468
:102A4800136C03400793079BA8E7C046002C01407E
:102A58000004004000100040001400400020004026
:102A6800004001400044014000480140001002407D
:102A7800284B02689A421CD0274B02689A421ED003
:102A8800264B02689A4220D0254B02689A4222D0EF
:102A9800244B02689A4224D0234B02689A4226D0DB
:102AA800224B02689A4228D00268214B9A422AD0C7
:102AB8007047204A136C20490B401364DCE71D4A19
:102AC800D36B02218B43D363DAE71A4AD36B102105
:102AD8008B43D363D8E7174AD36B20218B43D36347
:102AE800D6E7144A136C15490B401364D4E7114A0E
:102AF800136C13490B401364D2E70E4A136C114947
:102B08000B401364D0E70B4A136C0F490B40136456
:102B1800CEE7C046002C01400004004000100040F1
:102B280000140040002000400040014000440140E3
:102B38000048014000100240FFF7FFFFFF7FFFFF42
:102B4800FFFFFEFFFFFFFDFFFFFFFBFF431C23D03E
:102B5800174B984223D012D8164B984221D004D94B
:102B6800154B98420AD1132006E0144B98421AD00C
:102B7800134B984201D111207047FFE7FEE7114B34
:102B8800984212D0104B984201D11620F4E70F4B0F
:102B98009842F3D11420EFE70E204042ECE70D20D5
:102BA800EAE71220E8E71020E6E71520E4E7C04648
:102BB800002C0140001400400020004000040040A8
:102BC800001000400044014000480140004001401E
:102BD800431C23D0174B984223D012D8164B984247
:102BE80021D004D9154B98420AD1132006E0144B82
:102BF80098421AD0134B984201D111207047FFE731
:102C0800FEE7114B984212D0104B984201D1162082
:102C1800F4E70F4B9842F3D11420EFE70E2040421F
:102C2800ECE70E20EAE71220E8E71020E6E7152097
:102C3800E4E7C046002C014000140040002000409A
:102C480000040040001000400044014000480140DA
:102C580000400140F0B583B00400FFF77BFE05009B
:102C68002000FFF779FE2068FFF770FF6A6D296D75
:102C780001F0CAF82068FFF769FF01F0F5F8276846
:102C88003800FFF7A5FF019006003800FFF75EFF48
:102C9800864201D103B0F0BD6A6D296D019801F03B
:102CA800B3F82068FFF794FF01F0DEF8F2E7043884
:102CB80070470000F0B5CE46474680B589B0041E7F
:102CC80001910292039300D1C0E0061DA023C058D1
:102CD8007C49FFF7E1FD8046A423E0587A49FFF7D5
:102CE800DBFD0500A823E0587849FFF7D5FD07006C
:102CF800AC23E0587649FFF7CFFD81464346002BC9
:102D080000D1A3E0A423E358013302D0002D00D161
:102D18009CE0A823E358013302D0002F00D195E0AE
:102D2800AC23E358013303D04B46002B00D18DE090
:102D380029004046FFF7DDFD20603900FFF7D9FD87
:102D480020604946FFF7D5FD206000287ED0614B02
:102D5800984222D0604B984200D17CE05F4B984269
:102D680000D190E05E4B98422ED15E4BD96A80220A
:102D780012031143D962D96A5B480140D962D96B01
:102D88001143D963DB6B13400793079BB1230322DD
:102D9800E254013B1A32E25416E0524B196B80227E
:102DA800D20111431963196B504801401963196C1A
:102DB800114319641B6C13400493049BB123002234
:102DC800E254013B1B32E254A023E0583D49FFF78F
:102DD80049FD002D04D0A423E0583B49FFF742FDEC
:102DE800002F68D0A823E0583849FFF73BFD80271B
:102DF8007F004B46002B08D080239B001F43553B88
:102E0800FF3BE0583249FFF72DFDB123E35C9B00FF
:102E1800374A9E5023686360019BA360029BE3606E
:102E2800109B2361039B63610C23A361E76100236B
:102E38002362E3626362B033E0560022012100F0AE
:102E4800E3FF002D39D0300004F028FB09B0C0BCE6
:102E5800B946B046F0BD234BD96A8022920211438D
:102E6800D962D96A23480140D962D96B1143D96321
:102E7800DB6B13400593059BB1230122E254013B10
:102E88001B32E254A0E7174BD96A8022D2021143C1
:102E9800D962D96A18480140D962D96B1143D963FC
:102EA800DB6B13400693069BB1230222E254013BDD
:102EB8001B32E25488E700279BE7300004F026FB2A
:102EC800C4E7C0466CFB000800FB0008ACFA000829
:102ED80064FA0008003801400044004000480040FF
:102EE800004C004000100240FFFFF7FFFFBFFFFF4C
:102EF800740B0020FFFFFDFFFFFFFBFF70B5040010
:102F0800B123C35C022B3CD011D8002B1FD0012B5E
:102F18002AD1254BD96A802292020A43DA62D96AF9
:102F280022480140D962DA6B0240DA631CE0032BC5
:102F38001AD11D4BD96A802212030A43DA62D96A70
:102F48001B480140D962DA6B0240DA630CE0164B89
:102F5800196B8022D2010A431A63196B1548014084
:102F680019631A6C02401A64B125635D9B00124A0A
:102F7800985803F011FB114B5A5D635D9A420ED0CD
:102F880070BD094BD96A8022D2020A43DA62D96A33
:102F98000B480140D962DA6B0240DA63E4E7074A7A
:102FA800B1230421D154EBE700100240FFFFFDFFDD
:102FB800FFFFF7FFFFBFFFFF740B0020600000203A
:102FC800FFFFFBFF10B582B00B4B1B689B000B4A41
:102FD8009C580B492000FFF75FFC002809D00948DE
:102FE800A023C45096210023009300228901FFF7F3
:102FF80061FE02B010BDC046E4FB000810FC0008EA
:103008006CFB00086000002010B5B123C35C9B0076
:10301800054A985803F0B0FF22231840223843424B
:103028005841C0B210BDC046740B002010B5B12382
:10303800C35C9B00054A985803F09EFF2123184063
:10304800213843425841C0B210BDC046740B00201D
:10305800F8B505000C0000F0B9F90600334AB123B1
:10306800D35C032B17D8314AB123D35C9B00304A79
:103078009858FFF71CFE071E54D03800FFF7D6FFFC
:10308800002842D000F0A2F9801BFA229200904258
:10309800F3D30020F8BD274B1B689B00264A9F5896
:1030A80026493800FFF7F8FB002839D01F4AB1231A
:1030B8000021D15404E01D49B1228B5C01338B54AB
:1030C8001A4AB123D35C032B11D89B00184A9B588A
:1030D800002BF0D019493800FFF7DEFB134AB12363
:1030E800D35C9B00124A9B581B688342E3D10F4A6A
:1030F800B123D35C032BB6D9FFF764FF0B4AB12386
:10310800D35C032BAFD90020C4E7FA23A2B2381D41
:103118009B00290004F010F9002805D12000B9E728
:103128000020B7E70020B5E70020B3E760000020E3
:10313800740B0020E4FB000810FC00086CFB00087E
:1031480070B504000D00002812D0FFF75DFF0028BD
:1031580011D1B223E35C2B70B123E35C2100B231BF
:103168009B00064A9858012204F0C0FA002070BD5E
:1031780001204042FBE701204042F8E7740B0020A1
:1031880070B504000D00002803D0FFF73DFF0028AC
:1031980000D070BD9823E550B025605700F070FE50
:1031A800B123E35C2100B2319B00044A9858012204
:1031B80004F09CFA605700F057FEEAE7740B002011
:1031C80070B504001500002815D09C23C150B02606
:1031D800805700F055FEB123E35CB822A1580A32AB
:1031E800A25A8918AAB29B000348185803F0F6F9A6
:1031F800A05700F039FE70BD740B002010B50028F0
:1032080003D0A423C358013300D010BDB123C35C3D
:103218009B00024A985803F05DFEF6E7740B002005
:1032280010B5002803D0A423C358013300D010BD23
:10323800B123C35C9B00024A985803F074FEF6E77A
:10324800740B002010B5FFF732FD002802D0982338
:10325800C358984710BD10B5FFF729FD002802D0C4
:103268009C23C358984710BD70B504000368DA69F9
:10327800D2070BD501221A622000FFF718FD051EA0
:1032880003D0FFF7C1FE002812D070BDDA6992079B
:1032980002D502221A62EFE7DA69520702D5042240
:1032A8001A62E9E7DA691207E6D508221A62E3E743
:1032B8002900B2310122200004F018FAE5E70000E5
:1032C80010B51B2000F016FE024B186803F00EFA2A
:1032D80010BDC046740B002010B51C2000F00AFE7B
:1032E800034B5868002801D003F000FA10BDC0460F
:1032F800740B002010B51D2000F0FCFD064B9868EB
:10330800002801D003F0F2F9034BD868002801D057
:1033180003F0ECF910BDC046740B002010B5040092
:10332800FFF7C5FC0100B2310122200004F0DEF9EC
:1033380010BD704710B50400114B1978002901D150
:10334800012010BDFA208000FCF7C4FE01000D4BDF
:103358001868FCF7BFFE00F0B1FD00280DD1032C62
:1033680001D90120EDE7013000222100404200F0A0
:103378004BFD054B1C600020E3E70120E1E7C04658
:10338800280100205C0000202C01002010B5084A0C
:10339800116880235B000B4313600020FFF7CAFF0E
:1033A800041E02D00124200010BDFFF7C2FFFAE777
:1033B80000200240034B1B78034A11685B18136016
:1033C8007047C04628010020840B0020014B186874
:1033D8007047C046840B0020034A136803490B401A
:1033E800034313607047C04600000140FFF9FFFF28
:1033F80030B583B0040000230193002800D106E112
:10340800836D002B13D023689A68D2001CD49A6865
:1034180080491140802252050A439A607E4B186801
:103428007E49FCF757FE01304000019009E0FEF7A5
:10343800BBFE0023E3655422A354E4E7019B013B50
:103448000193019B002BF9D123689A68D20000D51B
:103458009DE0A26D10210A43A265E26D0F390A436F
:10346800E26501209A6804210D001540114200D040
:103478000125A26DD20600D5C2E0002D00D0BFE024
:10348800A26D67490A400631FF310A43A2659A686E
:10349800D20752D4227E9203A1680A43617EC903EF
:1034A8000A43A57E69030A43216B002901D08021C4
:1034B80049010A43E1680A432169002969DB80213F
:1034C80089030A432C21615C49000A432021615C7D
:1034D800012961D0616A002905D0E0256D002940E5
:1034E800A56A29430A43D9684E4D29400A43DA6040
:1034F80063689B0F9B07E26C1A433C21615C0129BE
:1035080059D021680B69484D2B4013430B61636800
:10351800C0221206934210D08022D20593420CD0CA
:1035280080221206934208D040490A68404D2A403A
:10353800F025AD032B4013430B6022685369072124
:103548008B43616B0B43536121684B697022934332
:10355800A26B120113434B612369002B35D12268FA
:10356800916A103B0B43936223685A6907231340FF
:10357800626B9A423BD0A36D12229343023A1343E3
:10358800A365E36D0F3A1343E36501203DE0002096
:1035980068E74900490894E7002D03D180214902D2
:1035A8000A4397E7A16D20252943A165E16D1F3DD9
:1035B8002943E1658EE7216C0B43616C0B43A16CD9
:1035C8000B43134301221A439BE780229203934241
:1035D800CAD121688B6AE369013B9B001C221A400F
:1035E80010235B429340226E13438B62BCE7002397
:1035F800E365A36D03229343023A1343A36504E0F2
:10360800A36D10221343A365012003B030BD012030
:10361800FBE7C046E8FFFF6F5C000020400D030099
:10362800FDFEFFFF0102FEFF02FCFF1F082701400D
:10363800FFFFC3FFF8B504000D004669082E04D04B
:103648000368DB68DB071DD40426FFF7BFFE07000D
:1036580023681A6816421BD16B1CF9D0FFF7B6FE17
:10366800C01BA84201D8002DF2D123681B681E4256
:10367800EED1A36D04221343A36554230022E25420
:10368800032029E0836D202213438365012023E072
:10369800A16D802292000A43A265D968C022120156
:1036A800114213D1A27E002A10D11A6812070DD533
:1036B8009A68520711D45A680C218A435A60A36D3C
:1036C8000B4A13400432FF321343A365207E0028BF
:1036D8000CD123680C221A60F8BDA36D2022134375
:1036E800A365E36D1F3A1343E365EFE70020F3E7B3
:1036F800FEFEFFFF0368186C70470000F0B583B04A
:1037080004000023019305695433C35C012B00D1E5
:1037180030E154230122C254006883680332160042
:103728001E401A4209D0A36D1C321343A365012021
:1037380054230022E25403B0F0BD4B68022B00D1A1
:10374800D6E080221206954226D08B4A954223D095
:103758001F221340103A9A40256E95432A000D689F
:103768006F032FD1AD0E1F262E409E4016432666AE
:103778004D68AB080133E269934213D8826A1F236C
:103788001D40103B1E00AE40B2430E68B60E3340DB
:10379800AB401343836205E0826A0B685B035B0BF3
:1037A80013438362206842690B681B029A438D6841
:1037B8002B40724D2B40134343610B68002B4FDBAA
:1037C8000020B5E7EF07D0D4AE0727D46E0727D47B
:1037D8002E0727D4EE0627D4AE0627D46E0627D4A4
:1037E8002E0627D4EE0527D4AE0527D46E0527D498
:1037F8002E0527D4EE0427D4AE0427D46E0427D48C
:103808002E0427D4EE0327D4AE0327D48027FF0243
:103818002E003E403D42A8D01226A6E70126A4E786
:103828000226A2E70326A0E704269EE705269CE7D2
:1038380006269AE7072698E7082696E7092694E7D2
:103848000A2692E70B2690E70C268EE70D268CE7D2
:103858000E268AE70F2688E7102686E7112684E7D2
:10386800474A1168E02252040A404648834207D07A
:103878004548834222D0454883422CD0002057E750
:103888000802F5D480231B041A433D490B684048BD
:1038980003401A430A603F4B18683F49FCF71AFC7B
:1038A800013043001B189B00019302E0019B013B80
:1038B8000193019B002BF9D1002039E7C801DAD424
:1038C80080235B041A432E490B68314803401A438E
:1038D8000A6000202CE74B024AD48023DB031A43FA
:1038E80027490B682A4803401A430A6000201FE74B
:1038F80080231B069D4202D01F4B9D4205D1826A40
:103908000B685B035B0B9A4382620B68002B01DB3D
:1039180000200DE71A4A12681A498B4207D01A4943
:103928008B420FD019498B4217D0002000E7A02303
:103938005B041A4012490B68154803401A430A6091
:103948000020F5E6C0231B041A400D490B681048F7
:1039580003401A430A600020EAE6C0235B041A40C9
:1039680007490B680A4803401A430A600020DFE64B
:103978000020DDE60220DEE60400008000FFFF07ED
:1039880008270140001000B0004000B8002000B433
:10399800FFFF3FFE5C000020400D0300806D704774
:1039A80070B5040003689A68520724D59A6892078C
:1039B80005D49A6811490A4010210A439A60FFF712
:1039C80005FD050023689B685B0712D5FFF7FEFC21
:1039D800401B0228F6D923689B685B07F2D5A36DC4
:1039E80010221343A365E36D0F3A1343E3650120E7
:1039F80002E0002000E0002070BDC046E8FFFF7F25
:103A080030B583B004000023019303689A68D20795
:103A18004FD49968284A114211D19A6827490A4017
:103A280001210A439A60264B1B681B0217D5254BB8
:103A380018682549FCF74EFB013001900CE0836DB6
:103A4800102213438365C36D0F3A1343C3650120E6
:103A580030E0019B013B0193019B002BF9D1637E70
:103A6800012B01D1002025E0FFF7B0FC05002368F9
:103A78001A68D2071BD49A68D20705D49A680F49E6
:103A88000A4001210A439A60FFF7A0FC401B022864
:103A9800EDD923681B68DB07E9D4A36D1022134313
:103AA800A365E36D0F3A1343E365012002E00020AC
:103AB80000E0002003B030BD17000080E8FFFF7F62
:103AC800082701405C000020400D030010B50400E9
:103AD80003689B685B0724D45423C35C012B22D062
:103AE80054230122C254FFF78BFF002815D1A36D80
:103AF8000E4A1A4080235B001343A3650023E36545
:103B080022681C2111605422A35422689368084932
:103B18000B4004210B43936004E054230022E25439
:103B280000E0022010BD0220FCE7C046FEF0FFFFC7
:103B3800E8FFFF7F70B5040003689A680221080057
:103B48001040114200D001209A68D20735D50028CC
:103B580035D1996805220A40012A09D0A36D10229F
:103B68001343A365E36D0F3A1343E365012025E092
:103B78009A6814490A4002210A439A60236803227A
:103B88001A60FFF723FC050023689B68DB0712D542
:103B9800FFF71CFC401B0228F6D923689B68DB074B
:103BA800F2D5A36D10221343A365E36D0F3A1343B7
:103BB800E365012002E0002000E0002070BD002045
:103BC800FCE7C046E8FFFF7F70B5041E4BD0836D4D
:103BD800022213438365FFF7E3FE051E36D02268F1
:103BE800536822490B4053602368214A1A602268AF
:103BF800D36820490B40D360226813699B009B0857
:103C080013612268536907218B43536121680B6A4A
:103C1800194A13400B6221684B6A13404B622168B2
:103C2800CB6A1340CB6223689A6A00269E62134AC5
:103C3800136813490B4013602000FEF7D5FA266677
:103C4800E665A6655423E654280070BD2000FFF7FA
:103C580071FF051E01D10123A365226893680949F4
:103C68000B409360BBE70125EEE7C04660FCFFFF11
:103C78009F03000000023E8300F000F00827014087
:103C8800FFFF03FEE8FFFF6F10B504005423C35C79
:103C9800012B17D054230122C254FFF781FE0028BC
:103CA80003D054230022E25410BD2000FFF742FF46
:103CB8000028F6D1A36D044A13400432FF3213439F
:103CC800A365EEE70220EFE7FEFEFFFFF0B583B045
:103CD8000400002301935433C35C012B00D186E018
:103CE80001265423C654FFF725FF050023689A6868
:103CF80031001140164209D0A36D10221343A36569
:103D080054230022E254280003B0F0BDA26D3948C4
:103D180002400630FF300243A265DE68364A16408C
:103D2800DA6836480240DA60080005E0B4229A589A
:103D38007F231340C018013107291DD82768BB68A5
:103D48002F4A1A4080231B061343BB6023689A68D6
:103D5800002AEBDA019B01330193019A294B9A421D
:103D6800F4D9A36D12229343023A1343A365542353
:103D78000022E2540125C6E7FCF7ACF923689A68EB
:103D88001F4F3A4001210A439A60B4232268D2584F
:103D98007E318A4310432268D050226893683B40A2
:103DA8007D390B439360FFF711FB070023689A687E
:103DB800D20709D4DA681643DE60A36D0322934361
:103DC800023A1343A3659BE7FFF700FBC01B0228D9
:103DD800ECD923689B68DB07E8D5A36D1022134351
:103DE800A365E36D0F3A1343E36501258BE70225CD
:103DF80089E7C046FDFEFFFF03800000FC7FFFFF50
:103E0800E8FFFF7FFFF1020070B5002811DB83088F
:103E1800134EC0339B009D5903242040C000FF224D
:103E280014008440A54389010A4082402A439A51DC
:103E380070BD0F230340083B9B0806339B00094ACB
:103E4800944663445C6803221040C000FC321500AD
:103E58008540AC4389010A40824022435A60E7E723
:103E680000E100E000ED00E0002805DB1F2318401A
:103E78001E3B8340014A13607047C04600E100E0E2
:103E880000280ADB1F2318401E3B83400349802279
:103E98008B50BFF34F8FBFF36F8F704700E100E087
:103EA800BFF34F8F034B044ADA60BFF34F8FC0460E
:103EB800FDE7C04600ED00E00400FA050138802364
:103EC8005B0498420FD2094A50600948036A1B02F2
:103ED8001B0AC02109060B430362002393600733C2
:103EE8001360002070470120FCE7C04610E000E0A6
:103EF80000ED00E0002807DB1F2318401E3B83402D
:103F08000249C02252008B507047C04600E100E0D1
:103F1800704710B5FFF7FCFF10BD704710B5041EC1
:103F280039D0437F002B25D0022363772379002BD8
:103F380024D12368194A5A612268936818218B434F
:103F480093606379002B22D12368012252421A61BF
:103F58002268936860218B4361690B4393602268F0
:103F6800936880218B43A1690B4393600123637796
:103F7800002010BD0377FFF7D0FFD5E7E268A168FE
:103F8800200000F00DF80028DBD00120F1E72368BD
:103F980022691A61DCE70120EBE7C046B71DC104BE
:103FA80030B51F231C00013B002C06D01F241C40E9
:103FB8000D00E5402C00E407F4D5102A18D009D8E4
:103FC800002A0BD0082A03D10F2B07D901200EE0B5
:103FD80001200CE0182A0FD1062B0FD8036859616D
:103FE80001688B68182083431A438A60002030BD1B
:103FF800072BF3D90120FAE70120F8E70120F6E7BB
:1040080030B5002836D02523C35C022B06D0042304
:10401800C36320330022C254012030BD02681368F4
:104028000E218B431360426C136813490B401360D5
:1040380001680A6801239A430A60104C62681C21CF
:10404800056C29408B4013436360836CC26C5A60D3
:10405800036D002B06D01A6807490A401A60436DA1
:10406800826D5A6025230122C254013B0022C254AA
:104078000020D2E70120D0E7FFFEFFFF000002404A
:1040880070B52523C35C022B03D00423C36301202E
:1040980070BD026813680E218B43136001680A68BB
:1040A80001239A430A60416C0A68134C22400A6053
:1040B800124C62681C21056C29408B4013436360D5
:1040C800836CC26C5A60036D002B06D01A680A49CB
:1040D8000A401A60436D826D5A6025230122C2543A
:1040E800013B0022C254836B002B02D0984700206A
:1040F800CEE70020CCE7C046FFFEFFFF00000240ED
:104108002523C05CC0B2704730B5054C61690125F4
:10411800294361610260BFF36F8F436030BDC046C1
:1041280000200240084B5B69002B01DB0020704730
:10413800054B064A9A60064A9A605B69002B01DBC8
:104148000020F4E70120F2E7002002402301674540
:10415800AB89EFCD064B5969802212060A435A6192
:104168005B69002B01DB012070470020FCE7C0469B
:104178000020024070B50500FFF728F94419134BD9
:104188001B69DB0305D5FFF721F9A042F7D303200C
:1041980070BD0E490A690E4B14001C400D48086199
:1041A8001A4203D00C4B5C600120F1E7FFF70EF9CF
:1041B8004519064B1B695B0305D5FFF707F9A842AC
:1041C800F7D30320E4E70020E2E7C04600200240DE
:1041D800FA830000FB830000880B0020F8B5070075
:1041E8000C0015001E00144B1B78012B22D0124B1B
:1041F80001221A7000225A60FA208000FFF7BAFFE5
:1042080000280DD1012F0FD0290020000AF0B0FDA1
:10421800FA208000FFF7AEFF084A5369BB43536199
:10422800054B00221A70F8BD2A0033002000FFF762
:104238006BFFEDE70220F6E7880B00200020024024
:10424800034A536903438020400218435061704772
:1042580000200240044A536904480340C900194336
:10426800034B1943516170470020024007E0FFFFEC
:104278000200010070B504000E001F4B1B78012BD3
:1042880037D01D4B01221A7000225A60FA20800094
:10429800FFF770FF002828D1042363602368042BEC
:1042A80015D001235B423360A568A368E268944691
:1042B8006344AB4214D929006068FFF7CBFFFA20AA
:1042C8008000FFF757FF002809D10135EDE70430DA
:1042D800FFF7B6FFFA208000FFF74CFF05E03560D6
:1042E800064A536902218B435361034B00221A701B
:1042F80070BD0220FCE7C046880B00200020024069
:1043080010B50400094BDB68184204D1074B1B6940
:10431800234205D110BD054BD860FEF7B9F9F5E782
:10432800024B1C612000FEF7B7F9F3E700180240C2
:1043380003689A69920701D500229A6203689A690C
:10434800D20703D49A6901210A439A617047000091
:1043580010B58905890D120411431943029B1943AD
:1043680049004908046862685B0D8020C00003406A
:10437800024803439A431143616010BDFF63FF0382
:10438800436B1C4A934215D01B4A934212D00BB27E
:10439800002B29DB0023CA0701D5F22213438A0721
:1043A80001D5F4221343102920D020290CD1202232
:1043B800134309E00BB2002B0BDB002310290AD0B2
:1043C80020290BD040290CD001680A6813430B60E0
:1043D8007047B823F2E790221343F1E760221343B2
:1043E800F0E740221343EFE7B823D4E790221343C2
:1043F800DBE7C046495400081D53000830B5CB0719
:1044080009D54123C35C28221340282B01D0F2236D
:1044180002E01A3300E000238A0709D544241C432C
:104428004122825C28252A40282A0FD0F4221343EF
:104438000AB2002A0CDB10290DD020290ED0402901
:104448000FD001680A689A430A6030BD2300EFE77D
:10445800B8221343EFE790221343EEE720221343D9
:10446800EDE740221343ECE7C36AAA2B05D0C26AE2
:10447800AA231B029A4203D070470023C362FBE7BA
:1044880080239B04C362F7E7F0B5C64600B5070072
:104498000D0090461E003B689C692C40641B6342DB
:1044A8005C41444516D1731CF5D0FEF78FFF069B7F
:1044B800C01AB04201D8002EEDD17B6C20221343E4
:1044C8007B644123FA5400232232BB54023ABB5482
:1044D800012000E0002080BCB846F0BD7047000015
:1044E80010B5041E59D04123C35C002B43D041238F
:1044F8002422E2542268136801218B431360226846
:10450800274B61680B4013612268936825490B406B
:104518009360E368012B34D0226884231B02A168CE
:104528000B439360E368022B32D0226851681E4B1C
:104538000B4353602268D3681A490B40D360236940
:1045480062691343A269120221681343CB6022688F
:10455800E369216A0B4313602268136801210B4346
:1045680013600023636441221F31A1542363013285
:10457800A354002010BD40330022C254FFF7AEFF01
:10458800B5E7226880231B02A1680B439360C9E743
:104598002368802212015A60C7E70120EAE7C04673
:1045A800FFFFFFF0FF7FFFFF00800002F0B5CE465F
:1045B800474680B585B00600894690461D00002311
:1045C80003934133C35C202B00D0A6E003689B69AA
:1045D8001B0400D5A3E04023C35C012B00D1A0E05D
:1045E80040230122C25401332332C25400234364BE
:1045F800F368012B18D04B469A05920DA0239B0116
:10460800134332685360FEF7E1FE070033689A6986
:1046180020241440621E9441E2B29C691023234076
:10462800591E8B41DCB212E04B469A05920D414B64
:104638001343E6E733689A6920241440621E9441C4
:10464800E2B29B6910241C40631E9C41E4B21443EF
:1046580017D16B1CEED0FEF7B9FEC01BA84201D8DB
:10466800002DE7D120224123F254736C1343736465
:1046780040230022F254012005B0C0BCB946B04620
:10468800F0BD33689B69DB0622D500972B0000221A
:1046980020213000FFF7F8FE002846D133681022A9
:1046A800DA6133681032DA61039B434522D0039BF9
:1046B80001330393039B43459AD320224123F254A9
:1046C800736C1343736440230022F2540120D3E730
:1046D80000972B00002220213000FFF7D5FE00288C
:1046E80021D132682023D3614122B35420330022E0
:1046F800F254C1E7326851688023DB010B435360F1
:1047080000972B00002220213000FFF7BDFE002873
:104718000DD133682022DA61C9E70220ACE7022014
:10472800AAE70220A8E70120A6E70120A4E70120C4
:10473800A2E7C0460020000270B582B004000D0058
:104748004121415C20294AD12031415C012948D0CE
:10475800402101206054013120306054013111386A
:1047680060540021616462626385069BE3621E4BAC
:104778006363638D9BB2FF2B10D9FF2323858026AB
:104788007604236B112B0DD1069BAA2B0AD0AA23E2
:104798001B02069A9A4205D000230CE0638D2385FC
:1047A800E66AEEE72000FFF75FFE638D9BB2FF2B02
:1047B80013D8E66A0D4B228DD2B20093330029003C
:1047C8002000FFF7C5FD40230022E254012120000C
:1047D800FFF7D6FD002002B070BD044BEBE70220C6
:1047E800F9E70220F7E7C046A5510008002000803D
:1047F80070B582B004000D004121415C20294AD1E6
:104808002031415C012948D0402101206054013108
:1048180021306054013112386054002161646262B1
:104828006385069BE3621E4B6363638D9BB2FF2B1C
:1048380010D9FF23238580267604236B122B0DD1F4
:10484800069BAA2B0AD0AA231B02069A9A4205D0D5
:1048580000230CE0638D2385E66AEEE72000FFF76E
:1048680003FE638D9BB2FF2B13D8E66A0D4B228D96
:10487800D2B20093330029002000FFF769FD4023DE
:104888000022E25402212000FFF77AFD002002B046
:1048980070BD044BEBE70220F9E70220F7E7C046BA
:1048A800A551000800240080F8B504000D0016008A
:1048B8001F004123C35C28221340282B58D100290C
:1048C80001D0002E04D180239B006364012050E0B6
:1048D8002949FFF793FD4023E35C012B4AD040238D
:1048E8000122E2540133E35C2A2B27D041232922F9
:1048F800E2540133093AE25400236364226853689E
:104908001E490B40536065626685638D2385E762A7
:104918001B4B63632268916908230B409169C903A3
:1049280003D5002B01D00823D36140230022E25491
:1049380011492000FFF724FD00201AE00221200081
:10494800FFF75CFD23681A681204CFD51A680B4973
:104958000A401A60E36B002BC8D00A4A9A63E06BDE
:10496800FFF78EFB0028C1D0E06B836B9847BDE74B
:104978000120F8BD0220FCE701800000FF7FFFFF57
:10498800414F0008E3550008F8B504000D00160073
:104998001F004123C35C28221340282B58D100292B
:1049A80001D0002E04D180239B006364012050E0D5
:1049B8002949FFF723FD4023E35C012B4AD040231C
:1049C8000122E2540133E35C292B27D041232A2218
:1049D800E25401330A3AE2540023636422685368BC
:1049E8001E490B40536065626685638D2385E762C7
:1049F8001B4B63632268916908230B409169C903C3
:104A080003D4002B01D00823D36140230022E254B1
:104A180011492000FFF7B4FC00201AE00121200012
:104A2800FFF7ECFC23681A685204CFD51A680D49C1
:104A38000A401A60A36B002BC8D00B4A9A63A06B7C
:104A4800FFF71EFB0028C1D0A06B836B9847BDE71A
:104A58000120F8BD0220FCE702800000FF7FFFFF75
:104A6800414F0008FFBFFFFFE355000810B5412381
:104A7800C35C202B01D0022010BD21332822C25450
:104A8800034B436380210902FFF77AFC0020F3E718
:104A9800414F000810B5036899691A68436B002BE9
:104AA80000D0984710BD7047704770B50400422386
:104AB8000022C254013BC35C212B0FD0412320228A
:104AC800C2542F3B0363002545630221FFF796FC80
:104AD8004023E5542000FFF7E7FF70BD2033203264
:104AE800C254303B0363002545630121FFF786FC70
:104AF8004023E5542000FFF7D6FFEEE710B5040089
:104B080003681A6842210020605451040CD51A68C1
:104B180019490A401A604123E35C292B0BD0412331
:104B2800E35C2A2B17D010BD1204F4D51A68134978
:104B38000A401A60EFE718332822E254203B236327
:104B480001212000FFF75AFC40230022E2542000F4
:104B5800FCF7ADFEE7E717332822E2541F3B236337
:104B680002212000FFF74AFC40230022E2542000E3
:104B7800FCF783FED7E7C046FFBFFFFFFF7FFFFFBD
:104B8800F8B504004123C35C28221340282B06D023
:104B980003680822DA6140230022C254F8BD016884
:104BA8008E69360C273B1E408D692D0CFE273D4033
:104BB8008B689B059B0DCA681740C268022A24D1DE
:104BC800DA096A400620104211D1A26C0132A264AF
:104BD800A26C022AE2D10022A2640230C8614021FC
:104BE80062541A0031002000FCF7F4FDD6E780215A
:104BF80009022000FFF702FC40230022E2543A0099
:104C080031002000FCF7E6FDC8E780210902FFF724
:104C1800F5FB40230022E2542A0031002000FCF773
:104C2800D9FDBBE710B50400164BC362002303632C
:104C380041222020A0540132A35463634B0713D5AB
:104C480023685B6A626A1370636A01336362238D47
:104C5800002B09D0013B2385638D013B9BB2638503
:104C6800636C04221343636407492000FFF7C6FB03
:104C780023681022DA6140230022E2542000FCF766
:104C8800E4FD10BD0000FFFF03800000704770477F
:104C9800704710B54123C35C602B06D00023036323
:104CA80040228354FCF70AFE10BD1F3B2022C25449
:104CB8000023036320328354FFF7EAFFF4E7000080
:104CC80010B504004123C35C00204222A0543A4A94
:104CD800E2626085626C0A436264283BDBB2022BA5
:104CE8001BD803212000FFF789FB41232822E25427
:104CF800324B6363236BA26B002A03D0112B1AD0AB
:104D0800212B18D0E26B002A03D0122B33D0222B90
:104D180031D02000FFF7BDFF10BD29492000FFF763
:104D28006DFB4123E35C602B02D041232022E25437
:104D380000236363DEE723681A68520403D51A6800
:104D480020490A401A60A06BFFF7DAF901280ED053
:104D5800A36B1D4A9A6340230022E254A06BFFF71D
:104D68008FF90028D8D0A06B836B9847D4E7200030
:104D7800FFF78FFFD0E723681A68120403D51A6873
:104D880012490A401A60E06BFFF7BAF901280ED001
:104D9800E36B0D4A9A6340230022E254E06BFFF76D
:104DA8006FF90028B8D0E06B836B9847B4E7200010
:104DB800FFF76FFFB0E7C0460000FFFF414F000854
:104DC80003800000FFBFFFFFE3550008FF7FFFFFE0
:104DD80070B504000D00026816684123C35CD9B29F
:104DE8002020D061212B0CD029290AD0222901D0DA
:104DF8002A290CD14A492000FFF700FB222323630C
:104E080005E048492000FFF7F9FA212323632268C7
:104E1800516880231B020B43536022685368424940
:104E28000B4053602000FFF783FA730441D52268D2
:104E380013683E490B401360A36B002B03D01B681B
:104E48005B689BB263856B0711D504239D43236878
:104E58005B6A626A1370636A01336362238D002B95
:104E680005D0013B2385638D013B9BB26385638D30
:104E78009BB2002B03D0636C0422134363640023AA
:104E88004222A3546363636C002B21D1E26A284B4E
:104E98009A422AD14123E35C222B36D04123202297
:104EA800E254002323632032A3542000FCF7FFFCC4
:104EB8002AE03304C7D5226813681E490B401360E3
:104EC800E36B002BBFD01B685B689BB26385BAE7B6
:104ED800616C2000FFF7F4FE4123E35C282B13D11B
:104EE80029002000FFF79EFE0EE02000FFF706FED7
:104EF8000F4BE36241232022E25400232363203234
:104F0800A3542000FCF7A1FC70BD1F332022E254FB
:104F1800002323632032A3542000FCF7AEFCF3E700
:104F2800028000000180000000E800FEFFBFFFFFD4
:104F38000000FFFFFF7FFFFFF8B504000D0016001B
:104F4800C76A4023C35C012B00D196E001234022AD
:104F580083544A09134201D0B30617D4EB0640D54F
:104F6800F3063ED5638D9BB2002B28D14133E35C19
:104F7800282B0ED04123E35C292B13D02368102261
:104F8800DA6140230022E2540020F8BDFFF720FF39
:104F9800E4E780239B049F42ECD129002000FFF71F
:104FA80041FEEEE7364B9F42E8D023681022DA61D3
:104FB8002000FFF7BDF92000FFF7A0FDE1E7236817
:104FC8001022DA61636C0C3A13436364002F03D038
:104FD80080235B049F42D4D1616C2000FFF770FEF0
:104FE800CFE76B071ED573071CD5638D9BB2002BCB
:104FF8000DD023685B6A626A1370636A0133636267
:10500800238D013B2385638D013B9BB26385638DB3
:105018009BB2002BB5D11A4B9F42B2D02000FFF7AC
:105028006DFDAEE72B0701D5330716D4AB07A8D51E
:10503800B307A6D5638D9BB2002B13D02368626A91
:1050480012789A62636A01336362638D013B9BB293
:105058006385238D013B238593E729002000FFF713
:105068008FFD8EE780235B049F4202D0002F00D083
:1050780087E72000FFF742FD83E7022085E7C04667
:105088000000FFFF30B583B004000D000368202244
:10509800DA614123C35C212B29D04123C35C222B35
:1050A8002BD0226853683B490B405360002363634D
:1050B800394BE362EB0606D523681022DA61636C8C
:1050C8000C3A134363644123E35C602B1BD020003C
:1050D800FFF72EF9626C4123E35C602B01D0002AB4
:1050E8001AD0616C2000FFF7EBFD03B030BD012141
:1050F800FFF784F911232363D3E70221FFF77EF931
:1051080012232363CDE76B07E1D523685A6AFF238F
:1051180013400193019BDAE74123E35C212B15D06F
:105128004123E35C222BE0D11F332022E2540023E9
:1051380023634233E35C402B23D000234222A35451
:10514800023AA3542000FFF7AFFCCEE72033202219
:10515800E254002323634233E35C402B08D000234E
:105168004222A354023AA3542000FFF79CFCBCE758
:1051780000232232A354023AA3542000FFF786FDED
:10518800B3E700232232A354023AA3542000FFF7C6
:105198007EFDAAE700E800FE0000FFFF70B582B0C0
:1051A80004000D0016004023C35C012B00D1ADE0C4
:1051B8000123402283540A09134201D0F3061ED466
:1051C8006B0726D5730724D504239D4323685B6AA0
:1051D800626A1370636A01336362238D013B23851E
:1051E800638D013B9BB26385AB0602D5B30600D540
:1051F80087E040230022E254002002B070BD03681B
:105208001022DA61436C0C3A13434364FFF790F8B9
:10521800EAE7AB0710D5B3070ED52368626A1278A0
:105228009A62636A01336362238D013B2385638D30
:10523800013B9BB26385D7E72B0640D573063ED565
:10524800638D9BB2002B2DD0238D002B2AD1236890
:1052580059688905890D638D9BB2FF2B0ED8628D25
:1052680092B22285E06A2A4B984212D0E36AD2B2FF
:10527800002000902000FFF76BF8B5E7FF23238597
:105288007F3B002200925B04FF322000FFF760F8AA
:10529800AAE78023D2B2002000909B042000FFF7E9
:1052A80057F8A1E723685B689B0103D42000FFF748
:1052B800FCFB99E740212000FFF702FD94E76B060D
:1052C80000D491E7730600D48EE7638D9BB2002B60
:1052D80012D123685A68920100D585E7E16A0C4A21
:1052E800914205D159688022D2010A435A607BE76E
:1052F8002000FFF7DAFB77E740212000FFF7E0FC0A
:1053080072E729002000FFF7BDFE72E7022074E76C
:105318000000FFFFF8B504000D001600C76A40231F
:10532800C35C012B00D187E00123402283544A0942
:10533800134201D0B30616D4EB066FD5F3066DD52C
:10534800B30B0122110019401A4201D1330461D56F
:10535800E36B002B0AD032040AD51B685B68002B6C
:105368002DD0002205E0FFF733FDE5E7002200E03D
:105378000022A36B002B05D0002903D01B685B68B3
:10538800002B1ED0012A1CD023681022DA61636C1E
:105398000C3A134363644123E35CDBB2002F03D070
:1053A8008022520497423DD1212B2CD0292B2AD080
:1053B800222B01D02A2B28D12223236325E0012286
:1053C800D7E74123E35C282B07D04123E35C292B53
:1053D8000CD023681022DA6124E080239B049F42CA
:1053E800F3D129002000FFF71DFC1BE0134B9F425F
:1053F800EFD023681022DA612000FEF799FF200021
:10540800FFF77CFB0EE021232363616C2000FFF78C
:1054180057FC07E023681022DA6103E02B0701D567
:10542800330704D440230022E2540020F8BD2900A9
:105438002000FFF7A5FBF5E70220F7E70000FFFFD4
:1054480010B582B004004023C35C012B00D191E069
:105458000123402023540809034201D0D3062FD446
:105468000B0660D553065ED52268136840218B432E
:105478001360638D9BB2002B48D023685968890557
:10548800890D638D9BB2FF2B2ED9FF2323858023A3
:105498005B04228DD2B2002000902000FEF758FF56
:1054A800638D228D9B1A9BB263854123E35C222B7B
:1054B80025D0226811688023DB010B4313600DE0BF
:1054C80023681022DA61636C0C3A13436364202169
:1054D8002000FEF755FF2000FEF72AFF4023002298
:1054E800E254002002B010BD638D2385E26A224B8E
:1054F8009A4201D0E36ACCE780239B04C9E722687B
:10550800116880231B020B431360E7E723685B687D
:105518009B0103D42000FFF7C8FADFE740212000F1
:10552800FFF7CEFBDAE74B061CD553061AD5638D79
:105538009BB2002B11D123685A689201CED4E16A3C
:105548000D4A914205D159688022D2010A435A6016
:10555800C4E72000FFF7A9FAC0E740212000FFF7C1
:10556800AFFBBBE78B06B9D59306B7D52000FFF78D
:1055780089FDB3E70220B5E70000FFFF70B50268B8
:1055880093691168DC0508D50C0606D5446C01251D
:105598002C43446480246400D4615A0509D50A0662
:1055A80007D5426C08242243426402688024E40040
:1055B800D4619B0509D50B0607D5436C022213431A
:1055C80043640368FF32FF32DA61416C0B230B42FC
:1055D80000D170BDFFF774FBFBE710B5806A836BE1
:1055E800002B01D000229A63C36B002B01D000224C
:1055F8009A63FFF74EFB10BD4123C05CC0B27047F1
:10560800406C704710B5104A136810490B400343AB
:10561800136080239B00984201D0002010BD0C4BE2
:105628001B685800C01840000A49FAF753FD0130BA
:10563800054B5B695B0503D5002803D00138F7E704
:105648000020EBE70320E9E700700040FFF9FFFFC7
:105658005C00002040420F0070B582B0041E00D1EB
:1056680029E20368DB0739D5C14A916838230B4022
:10567800D16803220A40102B26D0082B26D0636855
:105688008022520293427FD0A022D202934200D1BC
:1056980081E0B74B1A68B7490A401A601A68B649D8
:1056A8000A401A606368002B00D180E0FDF78EFE87
:1056B8000500AF4B1B689B0310D4FDF787FE401B0A
:1056C8006428F6D90320F7E1032AD6D1A84B1B6832
:1056D8009B0303D56368002B00D1EFE123689B0788
:1056E80031D5A34A936838210B40D16803220A4078
:1056F800102B6AD0002B6BD19D4A1268520503D536
:10570800E268002A00D1DBE1994842689B490A40D7
:10571800616909020A434260002B0DD10368984968
:105728000B4021690B4303600368DB0A07221A4018
:10573800944BD340944A1360944B1868FDF7FAFDD4
:10574800002800D0BEE123681B0700D481E0884B05
:105758009A6838231340182B73D0A369002B00D103
:10576800B4E0834A136E01210B431366FDF72EFE46
:1057780005007F4B1B6E9B076BD4FDF727FE401B74
:105788000228F6D9032097E1794A116880235B0241
:105798000B43136086E7764B19688022D2020A43CE
:1057A8001A601968802252020A431A607AE7FDF7E4
:1057B8000DFE05006E4B1B689B038FD5FDF706FE9B
:1057C800401B6428F6D9032076E1022A92D193E798
:1057D800E368002B22D0664A136869490B402169A7
:1057E8000B431360116880235B000B431360FDF7C4
:1057F800EDFD05005E4B1B685B0506D4FDF7E6FD75
:10580800401B0228F6D9032056E159494B685B4AE8
:1058180013406269120213434B6094E7544A1368B9
:105828005B490B401360FDF7D1FD0500504B1B6829
:105838005B0588D5FDF7CAFD401B0228F6D9032071
:105848003AE14B4B1B6E9B0703D5A369002B00D194
:105858003AE123685B0700D4A2E0454B9A683823F5
:105868001340202B45D0424BDB6BDB004AD4404A27
:10587800D16B802040050143D163D36B0340019372
:10588800019B0125434B1B68DB053DD5A368012B14
:105898004ED0052B52D0364BDA6D01218A43DA659A
:1058A800DA6D03318A43DA65A368002B50D0FDF71F
:1058B8008DFD06002E4BDB6D9B076FD4FDF786FD33
:1058C800801B354B9842F5D90320F5E0284A136E22
:1058D80001218B431366FDF779FD0500244B1B6EF0
:1058E8009B07B6D5FDF772FD401B0228F6D90320A9
:1058F800E2E01F4BDB6D9B0752D5A368002B4FD10D
:105908000120D9E00025BDE7224A116880235B0009
:105918000B431360FDF75AFD06001E4B1B68DB05A1
:10592800B4D4FDF753FD801B0228F6D90320C3E049
:105938000F4AD36D01210B43D365B5E70C4BDA6DE4
:1059480004210A43DA65DA6D03390A43DA65ABE7FD
:10595800FDF73CFD0600064BDB6D9B071ED5FDF7EA
:1059680035FD801B0C4B9842F5D90320A4E0C046B6
:1059780000100240FFFFFEFFFFFFFBFFFF80FFFF5D
:10598800FFC7FFFF0024F4005C0000202C0100206A
:10599800FFFEFFFF0070004088130000012D1ED09D
:1059A800E369002B00D191E04F4A916838220A4000
:1059B800102A5ED0022B18D04B4A13684B490B4073
:1059C8001360FDF703FD0400474B1B689B0149D595
:1059D800FDF7FCFC001B0228F6D903206CE0424AC4
:1059E800D36B43490B40D363DAE73F4A13683F4917
:1059F8000B401360FDF7EAFC05003B4B1B689B015D
:105A080006D5FDF7E3FC401B0228F6D9032053E036
:105A1800354AD36837491940236A606A0343A06A44
:105A280000020343E06A0343206B03430B43D36044
:105A3800116880235B040B431360D16880235B05E6
:105A48000B43D360FDF7C2FC0400274B1B689B0186
:105A580006D4FDF7BBFC001B0228F6D903202BE077
:105A6800002029E0204AD36823490B40D360002056
:105A780022E0012B2CD01C4BDA6803231340216A47
:105A88008B4227D170231340616A8B4224D1FE21B7
:105A9800C9011140A36A1B0299421FD1F8239B0335
:105AA8001340E16A8B421BD1520F5207236B9A4273
:105AB80018D1002000E0012002B070BD0120FBE7F2
:105AC8000120F9E70120F7E70120F5E70020F3E7D7
